:020000040041B9
:10000000B8DF442065F24200CDE44200E9E442005A
:1000100005E5420021E542003DE542000000000008
:1000200000000000000000000000000051DA430062
:1000300059E542000000000021DC430089DC430058
:1000400069F4420069F4420069F4420069F4420034
:10005000C9CD420069F4420069F4420069F44200EB
:1000600069F4420000000000250743003D074300FB
:10007000550743008588430069F4420069F4420053
:100080006D0743008507430069F4420069F44200AC
:1000900069F4420069F4420069F4420069F44200E4
:1000A00021CE420069F4420069F4420069F4420042
:1000B00069F4420069F4420069F4420069F44200C4
:1000C00069F4420069F442008D65430000000000BD
:1000D0000000000000000000000000000000000020
:1000E00069F44200898B430069F4420069F44200DC
:1000F00069F4420069F4420069F4420069F4420084
:1001000069F4420069F4420069F4420069F4420073
:1001100069F4420000000000000000000000000040
:1001200069F4420069F4420001F9420069F44200B6
:1001300069F442000000000069F4420069F44200E2
:1001400010B5054C237833B9044B13B10448AFF311
:1001500000800123237010BDE01C4020000000003F
:10016000400141000C4B43B10C480D4910B5AFF3B1
:1001700000800C48036823B910BD0A48036833B9EE
:100180007047094B002BF7D0BDE810401847064BCD
:10019000002BF5D0184700BF0000000040014100CF
:1001A000E41C402084D544000000000080B584B0E9
:1001B00000AF0023FB609FED1F0A01201E4B9847F4
:1001C000F860B7EE000A02201B4B9847F8609FEDDD
:1001D000190A0320184B9847F860184B98470023DA
:1001E000BB6000237B6007F108031846144B984757
:1001F0000346FB60BA683B1D11461846114B9847F1
:100200000346FB60BB6818460F4B98470346FB60EC
:10021000BB6818460D4B98470346FB60BB687A687D
:10022000114618460A4B98470346FB60094B98470E
:10023000FEE700BF0000000075E3420009CB42006A
:10024000219C41003D594100BD154100B537410099
:10025000A19C41009DBF430080B485B000AFF86011
:10026000B9607A60FB68074A1A60BB68064A1A6080
:100270007B6840221A6000BF1437BD465DF8047BDE
:10028000704700BFE42B40203C2C402080B485B058
:1002900000AFF860B9607A60FB68074A1A60BB6813
:1002A000064A1A607B6880221A6000BF1437BD4678
:1002B0005DF8047B704700BF8C2B40203C2D402014
:1002C00080B582B000AF00233B604FF0800372B670
:1002D00083F31188BFF36F8FBFF34F8F62B67B60DC
:1002E000012206491120064B984700BF3B68002BAE
:1002F000FCD000BF0837BD4680BD00BFB8AA44008F
:1003000089CD420080B500AF014B984700BF80BD4A
:1003100069C5420080B584B000AF786039604FF0A5
:10032000800372B683F31188BFF36F8FBFF34F8FD3
:1003300062B6FB601220054B98470023BB60BB6888
:10034000034B984700BF1037BD4680BDFDC7420034
:100350000503410080B400AF00BFBD465DF8047BDB
:100360007047000080B586B000AF78603960002328
:100370003B617B687B613B68FB60FB68054B984792
:1003800000BF3B69002BFCD0034B984700BF1837D8
:10039000BD4680BD79DB4300D5DB430080B400AFB0
:1003A00060231846BD465DF8047B704780B584B075
:1003B00000AF786039603B68FB6060220021F8681C
:1003C000094B98477B68FA681A60FB6800225A60FC
:1003D000FB6800221A60FB6800229A60002318461E
:1003E0001037BD4680BD00BF7D55440080B483B04A
:1003F00000AF786039607B683A681A60002318465D
:100400000C37BD465DF8047B7047000080B586B0B0
:1004100000AFF860B9607A603B600022182138684C
:10042000074B98477861FB687A691A60054B9847D3
:100430000246BB681A60002318461837BD4680BDC7
:10044000E5AF4300B9C1420090B585B000AFF86098
:100450007A603B600B46FB72FA7AF96813465B00E0
:1004600013449B000B4410337A681A60FA7AF968D7
:1004700013465B0013449B000B4414333A681A6024
:10048000FC7A084B98470146FA6823465B002344F0
:100490009B0013440C331960002318461437BD46E3
:1004A00090BD00BFE9C9430080B586B000AFF860D9
:1004B000B9607A60BB689B687A681946F868044B33
:1004C000984778617B6918461837BD4680BD00BFE4
:1004D0002D14410080B582B000AF786039603B6870
:1004E000DB68002B04D03B68DB681846044B984758
:1004F0003B680022DA60002318460837BD4680BDFD
:100500001D12410090B58FB000AFF860B9603B603C
:100510001346FB71BB685B68591CBA6851607B610C
:10052000FB793B610023BB613B68FB61BB6C3B62B9
:10053000374B984703467B620A237B63FA79B96895
:1005400013465B0013449B000B4410331B683B6352
:100550003B6B002B07D107F110031946B8682D4BF0
:1005600098470A234FE0FB68002B02D07A69FB68AA
:100570001A60FA79B96813465B0013449B000B4478
:1005800014331B68FB62796BF86A234B9847034668
:10059000002B07D007F110031946B8681D4B984788
:1005A0000A2330E007F1100100237A6B386B1B4CF3
:1005B000A047B862F86A1A4B9847BB6A002B07D16C
:1005C00007F110031946B868124B98470B231AE03D
:1005D000BB6A012B07D007F110031946B8680D4B11
:1005E000984702230FE0FA79B96813465B00134479
:1005F0009B000B440C331868BB6819680023012268
:10060000084CA047002318463C37BD4690BD00BFAC
:10061000E9C94300D504410069C1420001B2430069
:1006200099C14200C1CD430090B589B000AFF860D8
:100630000B467A60FB72FA7A7B681A60FA7AF9687C
:1006400013465B0013449B000B4410331B68FB6193
:10065000FB69002B05D17968F8681A4B98470A2383
:100660002BE04FF4FA73BB610023BA697968F8692B
:10067000154CA04778617B69002B05D17968F86833
:10068000104B98470B2318E07B69012B05D0796844
:10069000F8680C4B984702230FE0FA7AF968134682
:1006A0005B0013449B000B440C331868FB6819680B
:1006B00000230122054CA047002318462437BD46DD
:1006C00090BD00BFD504410001B24300C1CD43003D
:1006D00090B58BB002AF786039600823FB617B680E
:1006E000996807F11003FA691846124B9847B861E8
:1006F000BB69002B01D0BB6918E03B691B697B61BA
:100700007B6902221A607B69FA695A600023FB60E8
:100710003B68DAB239697B695B6807F10C000093CA
:100720000B467968044CA047B861BB69184624376A
:10073000BD4690BD2D1441000505410090B58DB01A
:1007400002AFF860B9607A600C237B62FB6899683D
:1007500007F118037A6A1846134B984738623B6AC8
:10076000002B01D03B6A1BE0BB691B69FB61FB6985
:1007700003221A60FB697A6A5A60FB697A689A6098
:1007800000237B61BB68DAB2B969FB695B6807F17A
:10079000140000930B46F968044CA04738623B6A8A
:1007A00018462C37BD4690BD2D144100050541006B
:1007B00090B58DB002AFF860B9607A600C237B62AF
:1007C000FB68996807F118037A6A1846134B984733
:1007D00038623B6A002B01D03B6A1BE0BB691B6996
:1007E000FB61FB6904221A60FB697A6A5A60FB6943
:1007F0007A689A6000237B61BB68DAB2B969FB69E9
:100800005B6807F1140000930B46F968044CA0479D
:1008100038623B6A18462C37BD4690BD2D14410006
:100820000505410090B591B002AFF861B9617A61F8
:100830003B6187ED030AC7ED020A87ED011AC7ED98
:10084000001A3B690533DB007B63FB69996807F19C
:1008500028037A6B18462A4B984738633B6B002B6A
:1008600001D03B6B47E0BB6A1B69FB62FB6A0E224F
:100870001A60FB6A7A6B5A60FB6A7A699A60FB6A53
:100880003A69DA60FB6AFA681A61FB6ABA685A6107
:10089000FB6A7A689A61FB6A3A68DA61FB6A283314
:1008A0001A46FB6A1A623B699A00FB6A13442833B2
:1008B0001A46FB6A5A62FB6A186A3B699B001A4631
:1008C000B96C104B9847FB6A586A3B699B001A4603
:1008D000F96C0C4B984700237B62BB69DAB2B96AAA
:1008E000FB6A5B6807F1240000930B46F969064C2C
:1008F000A04738633B6B18463C37BD4690BD00BFF0
:100900002D144100815344000505410090B591B07C
:1009100002AFF861B9617A6187ED040AC7ED030A95
:1009200087ED021AC7ED011A3B607B690533DB00D6
:100930007B63FB69996807F128037A6B1846294B9A
:10094000984738633B6B002B01D03B6B46E0BB6A9A
:100950001B69FB62FB6A0F221A60FB6A7A6B5A60A2
:10096000FB6ABA699A60FB6A7A69DA60FB6A3A697B
:100970001A61FB6AFA685A61FB6ABA689A61FB6A93
:100980007A68DA61FB6A28331A46FB6A1A627B6965
:100990009A00FB6A134428331A46FB6A5A62FB6AC0
:1009A000186A7B699B001A4639680F4B9847FB6AA7
:1009B000586A7B699B001A46B96C0B4B9847002319
:1009C0007B62BA6AFB6A5B6807F1240000931346F6
:1009D0000322F969054CA04738633B6B18463C3746
:1009E000BD4690BD2D1441008153440005054100D2
:1009F00090B591B002AFF861B9617A6187ED040AF0
:100A0000C7ED030A87ED021AC7ED011A3B607B6947
:100A10000533DB007B63FB69996807F128037A6B78
:100A20001846294B984738633B6B002B01D03B6B32
:100A300046E0BB6A1B69FB62FB6A20221A60FB6A04
:100A40007A6B5A60FB6ABA699A60FB6A7A69DA6003
:100A5000FB6A3A691A61FB6AFA685A61FB6ABA680A
:100A60009A61FB6A7A68DA61FB6A28331A46FB6A84
:100A70001A627B699A00FB6A134428331A46FB6AA0
:100A80005A62FB6A186A7B699B001A4639680F4BE9
:100A90009847FB6A586A7B699B001A46B96C0B4BF6
:100AA000984700237B62BA6AFB6A5B6807F12400FF
:100AB000009313460322F969054CA04738633B6B4A
:100AC00018463C37BD4690BD2D144100815344006B
:100AD0000505410090B58DB002AFF860B9607A604D
:100AE0000C237B62FB68996807F118037A6A184641
:100AF000134B984738623B6A002B01D03B6A1BE0DE
:100B0000BB691B69FB61FB6915221A60FB697A6A84
:100B10005A60FB697A689A6000237B61BB68DAB22D
:100B2000B969FB695B6807F1140000930B46F9682B
:100B3000044CA04738623B6A18462C37BD4690BD2E
:100B40002D1441000505410090B5C9B002AF07F171
:100B50000C04206007F108000160391D0A603A4664
:100B6000136007F5967207F110031A6007F110037E
:100B700007F114001B68D7F828214FF48071114C3D
:100B8000A04707F1140318460F4B98470346C7F8D0
:100B90001431D7F814413B463A1D07F1080107F11B
:100BA0000C00019407F1140400941B681268096892
:100BB0000068064CA0470346184607F58E77BD46E9
:100BC00090BD00BF1D804400015C4400D10B41007A
:100BD00090B58DB002AFF860B9607A603B60FB6B96
:100BE00018337B62FB68996807F118037A6A184624
:100BF0001C4B984738623B6A002B01D03B6A2DE0C2
:100C0000BB691B69FB61FB6916221A60FB697A6A82
:100C10005A60FB697A689A60FB693A68DA60FB6936
:100C2000FA6B1A61FB6918331A46FB695A61FB6952
:100C30005B69FA6BB96B18460B4B984700237B61D5
:100C4000BB68DAB2B969FB695B6807F1140000930D
:100C50000B46F968054CA04738623B6A18462C37AA
:100C6000BD4690BD2D14410081534400050541004F
:100C700090B58DB002AFF860B9607A603B60FB6BF5
:100C800006339B007B62FB68996807F118037A6A58
:100C900018461D4B984738623B6A002B01D03B6ACF
:100CA0002EE0BB691B69FB61FB6919221A60FB69B5
:100CB0007A6A5A60FB697A689A60FB693A68DA6016
:100CC000FB69FA6B1A61FB6918331A46FB695A61B2
:100CD000FB695869FB6B9B001A46B96B0B4B984735
:100CE00000237B61BB68DAB2B969FB695B6807F115
:100CF000140000930B46F968054CA04738623B6A24
:100D000018462C37BD4690BD2D1441008153440038
:100D10000505410090B58DB002AFF860B9607A600A
:100D20003B60FB6B18333B62FB68996807F1140367
:100D30003A6A1846224B9847F861FB69002B01D0AC
:100D4000FB6939E07B691B69BB61BB691A221A60C8
:100D5000BB693A6A5A60BB697A689A60BB693A684B
:100D6000DA60BB69FA6B1A61BB6918331A46BB6952
:100D70005A6100237B620BE0BB695A697B6A1344AA
:100D80007A6AB96B0A4412781A707B6A01337B6203
:100D90007A6AFB6B9A42EFD300233B61BB68DAB2FD
:100DA0007969BB695B6807F1100000930B46F9682D
:100DB000044CA047F861FB6918462C37BD4690BD2E
:100DC0002D1441000505410090B5C9B002AF07F1EF
:100DD0000C04206007F108000160391D0A603A46E2
:100DE000136007F5967207F110031A6007F11003FC
:100DF00007F114001B68D7F828214FF48071114CBB
:100E0000A04707F1140318460F4B98470346C7F84D
:100E10001431D7F814413B463A1D07F1080107F198
:100E20000C00019407F1140400941B68126809680F
:100E30000068064CA0470346184607F58E77BD4666
:100E400090BD00BF1D804400015C4400510E410074
:100E500090B58DB002AFF860B9607A603B60FB6B13
:100E600018337B62FB68996807F118037A6A1846A1
:100E70001C4B984738623B6A002B01D03B6A2DE03F
:100E8000BB691B69FB61FB691B221A60FB697A6AFB
:100E90005A60FB697A689A60FB693A68DA60FB69B4
:100EA000FA6B1A61FB6918331A46FB695A61FB69D0
:100EB0005B69FA6BB96B18460B4B984700237B6153
:100EC000BB68DAB2B969FB695B6807F1140000938B
:100ED0000B46F968054CA04738623B6A18462C3728
:100EE000BD4690BD2D1441008153440005054100CD
:100EF00090B58DB002AFF860B9607A603B60FB6B73
:100F000006339B007B62FB68996807F118037A6AD5
:100F100018461D4B984738623B6A002B01D03B6A4C
:100F20002EE0BB691B69FB61FB691C221A60FB692F
:100F30007A6A5A60FB697A689A60FB693A68DA6093
:100F4000FB69FA6B1A61FB6918331A46FB695A612F
:100F5000FB695869FB6B9B001A46B96B0B4B9847B2
:100F600000237B61BB68DAB2B969FB695B6807F192
:100F7000140000930B46F968054CA04738623B6AA1
:100F800018462C37BD4690BD2D14410081534400B6
:100F90000505410080B586B000AFF860B9607A60A1
:100FA000BB68DBB27A681946F868044B9847034679
:100FB0007B617B6918461837BD4680BD2906410014
:100FC00080B586B000AFF860B9607A603B603B687E
:100FD0000B339B007B617A697968B868114B98473D
:100FE00038613B69002B01D03B6917E0BB681B6887
:100FF0001A69FB681A60FB681B683A68DA60FB686C
:101000001B681D221A60FB681B687A695A60FB68BE
:101010001B68FA6812682C321A613B691846183747
:10102000BD4680BDA904410080B485B000AF7860A2
:1010300039607B6814333A6802FB03F32C33FB609E
:10104000FB6818461437BD465DF8047B7047000006
:1010500080B58AB000AFF860B9607A603B602C233D
:10106000BB6114237B61BB683B61BA68BB691344F5
:101070001A463B699A623B693A689A613B697A68A9
:101080005A613B693A68DA613B693A681A623B69BE
:1010900000225A62264B984702463B691A60002399
:1010A0007B6200233B620023FB6124E03B699B6A77
:1010B00019467A697B681344FA6902FB03F30B440F
:1010C0007B627B6A3A6A9A607B6A3A691A607B6AD9
:1010D0007A68DA607A6A7B6913441A467B6A1A6115
:1010E0003B6A002B02D03B6A7A6A5A607B6A3B6299
:1010F000FB690133FB61FA693B689A42D6D37B6A8C
:1011000000225A603B699A6A3B695A603B697A6A75
:101110009A603B690022DA603B6900221A61FB6831
:101120003A691A60002318462837BD4680BD00BFC3
:10113000B9C1420080B582B000AF786039603B68C9
:10114000DB69002B01D10A235FE03B681B680A21A1
:101150001846304B98470346002B01D00A2354E031
:101160003B68DB69002B06D13B681B6818462A4B9D
:1011700098470A2349E03B685A687B681A603B68D5
:101180005B685A683B685A603B685B68002B03D019
:101190003B685B6800229A603B685B6A002B08D161
:1011A0007B681A683B68DA603B68DB6800229A60FB
:1011B00009E07B681B683A6812699A603B681B69A2
:1011C0007A6812685A607B681A683B681A613B68E3
:1011D0001B6900225A603B68DB695A1E3B68DA6172
:1011E0003B68DA693B681B6A9A4203D23B68DA695A
:1011F0003B681A623B685B6A5A1C3B685A623B68F0
:101200001B681846044B9847002318460837BD460C
:1012100080BD00BF69C1420099C1420080B586B05F
:1012200000AF78607B681B687B617B691B680A2163
:1012300018462F4B98470346002B01D0012353E05B
:101240007B69DB695A1C7B69DA617B695B6A5A1EC0
:101250007B695A627B689B683B617B685B68FB606B
:101260003B69002B02D03B69FA685A60FB68002B8F
:1012700002D0FB683A699A607B69DA687B689A42B7
:1012800002D17B69FA68DA607B691A697B689A42E5
:1012900002D17B693A691A617B699B68002B0FD088
:1012A0007B689B68002B03D07B699A687B689A6097
:1012B0007B699B68002B03D07B699B687A685A60C6
:1012C0007B697A689A607B699B6800225A607B69B7
:1012D0005B68002B02D17B697A685A607B691B6866
:1012E0001846044B9847002318461837BD4680BD62
:1012F00069C1420099C1420080B483B000AF182395
:101300007B607B6818460C37BD465DF8047B7047F0
:1013100080B485B000AF786039603B68FB60FB68E3
:1013200000221A607B68FA681A6000231846143796
:10133000BD465DF8047B704790B587B000AFF8609C
:10134000B9607A603B60BB681B68042B01D90A2333
:1013500021E000237B6107F11000BB6A3A687968DD
:101360000F4CA04778617B69002B01D07B6912E0AC
:10137000BB681B683A69B9689B000B445A60BB683C
:101380001B685A1CBB681A60FB68002B02D03A69C4
:10139000FB681A60002318461C37BD4690BD00BF8D
:1013A0005110410080B487B000AFF860B9607A6036
:1013B000BB681B68002B01D1012331E0BB685B686F
:1013C0007B6101233B611BE0BA683B699B001344CE
:1013D0005B685A697B689A420FD3BA683B699B0085
:1013E00013445B685A697B695B699A4205D2BA68A3
:1013F0003B699B0013445B687B613B6901333B6144
:10140000BB681A683B699A42DED87B695A697B6877
:101410009A4201D2012303E0FB687A691A60002333
:1014200018461C37BD465DF8047B704780B586B012
:1014300000AFF860B9607A6000233B6107F11003E8
:101440007A68B9681846094B984778617B69002B20
:1014500001D07B6906E03B691946F868044B984760
:1014600078617B6918461837BD4680BDA5134100D9
:101470003511410090B587B000AFF860B9607A606F
:1014800040F2E7337B6100233B6134E01E4A3B6955
:1014900052F82330002B2BD114201C4B98470246C6
:1014A000FB681A60FB681B683A691A60FB681C6875
:1014B000174B984703466360FB681B687A689A601D
:1014C000FB681B68BA681A61FB681B68FA681268D7
:1014D000126911460F4AA2FB01125209DA60FB6839
:1014E0001A6809493B6941F8232000237B6105E024
:1014F0003B6901333B613B69092BC7DD7B691846BA
:101500001C37BD4690BD00BF3C2F4020CDC14200DE
:10151000E9C943001F85EB51B0B483B000AF7860D8
:1015200039603B68092B02D940F2E73314E00D4AD9
:101530003B6852F82330002B02D140F2E7330BE036
:10154000084A3B6852F823307A6814461D460FCD8E
:101550000FC42B682360002318460C37BD46B0BC6F
:10156000704700BF3C2F402080B485B000AF78604A
:101570000023FB607B681B68092B11DC7B681B6800
:10158000002B0DDB7B681B680A4A52F823307A680F
:1015900012691146084AA2FB01125209DA6002E000
:1015A00040F2E733FB60FB6818461437BD465DF830
:1015B000047B70473C2F40201F85EB5190B589B0CC
:1015C00002AF7860174B9847034683F00103DBB204
:1015D000002B02D064237B6102E040F2DC537B618C
:1015E00000233B6107E0104A3B69002142F82310C9
:1015F0003B6901333B613B69092BF4DD0B4A7B6896
:1016000013607B699AB207F10C03019307230093DF
:101610007B6807490748084CA047002318461C3739
:10162000BD4690BD81C642003C2F4020FC1C40209E
:10163000E8AA440041164100A1BB4300000000009D
:1016400090B589B000AF78607B687B61384B984774
:101650000346FB6007F10B031846364B9847FB7AAD
:101660001B2B07D1002234491020344B98471020FF
:10167000334B98470023FB77FB7F83F00103DBB2FA
:10168000002B0ED02F4B98470A46014626A4D4E9DA
:101690000034944208BF8B4203D22B4B984701235E
:1016A000FB770023BB6130E0284ABB6952F8233046
:1016B000002B27D0254ABB6952F82330DB68002B6A
:1016C00019DAB7EE000A0120214B98479FED210A55
:1016D00002201F4B98479FED1F0A03201C4B984781
:1016E00001221D491020154B98471020144B984794
:1016F00001233B61FCE7154ABB6952F82330DA68E5
:10170000013ADA60BB690133BB61BB69092BCBDDF0
:10171000124B984707F10C0364211846104B984769
:10172000AAE700BFAFF3008000A3E11100000000B2
:10173000E1C1430021C84200F0AA4400E51741007E
:1017400055C6420061C342008DC742003C2F402075
:1017500075E342000000000008AB440061CD420088
:1017600041BE430080B582B000AF194B1B7883F0B7
:101770000103DBB2002B25D0FB1D1846154B984703
:10178000FB791A2B1BD0FB79012B18D0FB79302B5E
:1017900015D0FB79002B12D00F4B98470346092B2D
:1017A0000DDD0D4B984703460F2B05DDFB79022B12
:1017B00002D00220094B9847094B01221A70044BB2
:1017C00001221A70064B1B7818460837BD4680BDAB
:1017D000001D402021C8420021C7420055C64200DA
:1017E000011D4020B0B598B000AF03463960FB71D1
:1017F0001346BB71924B9847034683F00103DBB25B
:10180000002B02D040F2E733D5E2EFF311824FF024
:10181000800372B683F31188BFF36F8FBFF34F8FCE
:1018200062B6BA637B63874B98470120864B984723
:1018300000233B6307F130031846844B9847034667
:10184000002B01D000233B634FF48043FB653B6BCF
:10185000FA6D9A4201D93B6BFB650023BB65BB79EE
:10186000002B04D07A4B1B689B681B68BB65BA6D64
:1018700013465B0013449B0003F55472FB6D9A42C0
:1018800002D940F2E73396E200237B65714B1A6878
:101890007B6D591C7965134410221A706D4B1A68C0
:1018A0007B6D591C7965134402221A7007F12F03CE
:1018B0001846694B9847674B1A687B6D591C7965C8
:1018C000134497F82F201A70624B1A687B6D591CCD
:1018D0007965D418614B98470346237000233B6514
:1018E00000233B650DE05B4B1A687B6D591C7965E5
:1018F00013445B493A6D0A4412781A703B6D013308
:101900003B653B6D632BEED900233B650CE0514BEF
:101910001A687B6D591C79651A443B6D591C3965F1
:1019200039680B441B7813703B6D632B11D83A68F0
:101930003B6D13441B78002BE9D10AE0454B1A6834
:101940007B6D591C7965134400221A703B6D01337D
:101950003B653B6D632BF1D93E4B1A687B6D13449D
:10196000FA791A607B6D04337B653A4B1A687B6D9C
:10197000D4183C4B9847034623607B6D04337B654A
:10198000344B1A687B6DD518374B984703460C4685
:10199000C5E900347B6D08337B652E4B1A687B6D7F
:1019A000D418324B9847034623607B6D04337B6524
:1019B000284B1A687B6DD4182D4B9847034623603B
:1019C0007B6D04337B65234B1A687B6DD418294BE0
:1019D0009847034623607B6D04337B651D4B1A6873
:1019E0007B6DD418244B9847034623607B6D0433EA
:1019F0007B65184B1A687B6DD418204B98470346BB
:101A000023607B6D04337B65124B1A687B6DD418A1
:101A10001B4B9847034623607B6D04337B65BB7982
:101A2000002B00F09F810B4B1A687B6D1344BA6D3D
:101A30001A607B6D04337B6500233B6535E000BF96
:101A400081C64200192F4100DD1E41008126410060
:101A5000041D4020642F402021C8420009CB4200D1
:101A6000682F4020A9C74200A9CB420019C24200FA
:101A700005C24200BDC2420099C242003DC34200BD
:101A800019C34200754B1A687B6D1A44744B1B686E
:101A900099683B6D9B000B445B681B6A13607B6D10
:101AA00004337B653B6D01333B653A6DBB6D9A42F8
:101AB000E8D36C4B9847786407F1200307F12402C0
:101AC0000021786C684CA0474FF400733B627B6A3E
:101AD0001A463B6A1344654A934204D9634B7A6AB7
:101AE0009B1A9B103B623A6A7B6D134403F1180208
:101AF000FB6D9A4202D940F2E7335CE1786C5C4BB3
:101B00009847386400233B653B6C002B23D00DE0E5
:101B1000524B1A687B6D591C79651344396C3A6DC8
:101B20000A4412781A703B6D01333B653A6C3B6D89
:101B300013441B78002B0ED03B6D0E2BE8D90AE026
:101B4000464B1A687B6D591C7965134400221A7044
:101B50003B6D01333B653B6D0F2BF1D93F4B1A6851
:101B60007B6D13447A6A1A607B6D04337B653B4B53
:101B70001A687B6D13443A6A1A607B6D04337B6587
:101B800000233B650FE0354B1A687B6D1344796A7F
:101B90003A6D92000A4412681A607B6D04337B65CB
:101BA0003B6D01333B653B6D9A003B6A9A42EAD339
:101BB0000023FB6400233B650EE007F10C03396D45
:101BC00018462C4B98470346002B02D1FB6C01337F
:101BD000FB643B6D01333B653B6D092BEDD91F4B1E
:101BE0001A687B6D1344FA6C1A607B6D04337B6555
:101BF00000233B65AEE007F10C03396D18461D4B21
:101C000098470346002B40F0A2807B6D03F124022D
:101C1000FB6D013B9A4200F2A2803B691846144BCF
:101C2000984738640023BB640DE00C4B1A687B6D49
:101C3000591C79651344396CBA6C0A4412781A70CD
:101C4000BB6C0133BB643A6CBB6C13441B78002B38
:101C50001DD0BB6C0E2BE8D919E000BF642F4020CB
:101C6000041D4020E9C9430019CD4200FFFF452073
:101C700001C2430019154100514B1A687B6D591C74
:101C80007965134400221A70BB6C0133BB64BB6CD2
:101C90000F2BF1D94A4B1A687B6D1344BA691A604D
:101CA0007B6D04337B653B691846464B9847F86368
:101CB000434B1A687B6D1344FA6B1A607B6D0433D7
:101CC0007B653F4B1A687B6DD4183B6918463E4BC9
:101CD0009847034623607B6D04337B6538697969D7
:101CE00007F1200307F12402384CA047344B1A684F
:101CF0007B6D13447A6A1A607B6D04337B65304BCD
:101D00001A687B6D13443A6A1A607B6D04337B65F5
:101D10003A6A7B6D1A44FB6D013B9A4221D800233D
:101D2000BB640FE0264B1A687B6D1344796ABA6C6A
:101D300092000A4412681A607B6D04337B65BB6CA9
:101D40000133BB64BB6C9A003B6A9A42EAD33B6D99
:101D500001333B653B6D092B7FF64DAF02E000BFC1
:101D600000E000BF0023BB6207F128031A460021F0
:101D70001748184B98470346052B03D000211448F9
:101D8000154B98477A6D00211148144B984703462C
:101D9000002B02D040F2E7330DE0094B1A687B6D4F
:101DA00000210B480E4CA0470346002B02D040F206
:101DB000E73300E0002318466037BD46B0BD00BFE2
:101DC000642F4020BDCC420001C9430019CD420020
:101DD000504D5504BD274100492B41000D284100BD
:101DE000BD2A410080B582B000AF786039602D4BCC
:101DF0001B68002B04D12C4B98470246294B1A60D4
:101E00002A4B98477B682A4A13603B68294A13602B
:101E1000294B984703461A46284B1A60264B984789
:101E200003461A46264B1A60224B1968214B1B6841
:101E3000234A126893FBF2F002FB00F29B1ACB1AC2
:101E40001C4A13601D4B1B685A001A4B1B689A42B0
:101E500001DD072321E04FF400731846194B984722
:101E60000246194B1A60184B1B68002B01D1032343
:101E700013E0154B18680E4B1B684FF4007219469F
:101E8000124B9847124B01221A70124B9847034687
:101E9000002B01D0104B9847002318460837BD4649
:101EA00080BD00BF081D4020B9C142009D2D4100EA
:101EB000101D4020A8094020F18D4300AC094020AE
:101EC000B00940202DC24200141D4020815344001F
:101ED0000D1D4020792C4100AD2B410080B483B012
:101EE00000AF0346FB71054AFB79137000231846C7
:101EF0000C37BD465DF8047B704700BF0C1D4020C9
:101F000080B500AF094B1B78002B01D001230BE0FB
:101F1000074B1B68FA211846064B98470346002BCF
:101F20000CBF01230023DBB2184680BD0C1D4020EE
:101F3000081D402069C1420080B500AF054B1B78E9
:101F4000002B05D1044B1B681846044B984700E052
:101F500000BF80BD0C1D4020081D402099C14200DB
:101F600080B483B000AF7860064B1B681A46064BFE
:101F70001B681A447B68134418460C37BD465DF84D
:101F8000047B7047101D4020AC09402080B483B012
:101F900000AF0A4B1B7883F00103DBB2002B01D0AA
:101FA000012305E0064B1B6808337B607B68DB6818
:101FB00018460C37BD465DF8047B70470D1D402068
:101FC000101D402080B586B000AF786039601F4B8F
:101FD0009847034683F00103DBB2002B01D00B23AB
:101FE0002FE01B4B984738611A4B1B680833FB6086
:101FF00000237B611EE0F9687A6913469B00134455
:102000009B000B441C331A687B689A420FD1F96815
:102010007A6913469B0013449B000B4420331A68D3
:102020003B689A4203D10C4B9847002309E07B6937
:1020300001337B617A693B699A42DCDB064B984746
:10204000052318461837BD4680BD00BF011F41005B
:102050008D1F4100101D4020391F410080B588B000
:1020600000AFF860B9607A603B603B6800221A609C
:10207000294B1B7883F00103DBB2002B01D0012335
:1020800045E0264B9847034683F00103DBB2002B63
:1020900001D00B233BE0224B9847B861214B1B68D2
:1020A00008337B610023FB6125E03B681B689B00D4
:1020B000FA68D1187869FA6913469B0013449B00AB
:1020C00003441C331B680B603B681B689B00BA68A9
:1020D000D1187869FA6913469B0013449B000344A6
:1020E00020331B680B603B681B685A1C3B681A60F6
:1020F000FB690133FB61FA69BB699A4204DA3B6808
:102100001A687B689A42D0D3074B98470023184639
:102110002037BD4680BD00BF0D1D4020011F41007E
:102120008D1F4100101D4020391F410080B588B02F
:1021300000AFF860B9607A603B603B6800221A60CB
:10214000274B1B7883F00103DBB2002B01D0012366
:1021500042E0244B9847034683F00103DBB2002B97
:1021600001D00B2338E0204B9847B8611F4B1B6808
:1021700008337B610023FB6122E07969FA69134629
:102180009B0013449B000B441C331A68FB689A4263
:1021900013D13B681B689B00BA68D1187869FA694B
:1021A00013469B0013449B00034420331B680B60C1
:1021B0003B681B685A1C3B681A60FB690133FB6172
:1021C000FA69BB699A4204DA3B681A687B689A42EA
:1021D000D3D3074B9847002318462037BD4680BD10
:1021E0000D1D4020011F41008D1F4100101D40208A
:1021F000391F410090B486B000AF78603960544B0D
:102200001B6808333B613B69DB68002B04D13B68EA
:1022100000221A60002395E03B691A697B689A42A4
:1022200004D33B6800221A6000238BE001237B610A
:102230003FE039697A6913469B0013449B000B44C5
:10224000103319687B695A1E386913469B00134482
:102250009B000344103318687B695A1E3C6913467F
:102260009B0013449B00234414331B680344CB1A84
:10227000FB60FA687B689A4218D37B695A1E3969F9
:1022800013469B0013449B000B44103319687B6971
:102290005A1E386913469B0013449B0003441433B1
:1022A0001B68CA183B681A6000234BE07B69013346
:1022B0007B613B69DB681A467B699A42B9DC3B6902
:1022C000DB68002B3DD0234B1A68234B1B68D31AC5
:1022D0001C463B69DB685A1E396913469B00134450
:1022E0009B000B44103319683B69DB685A1E386940
:1022F00013469B0013449B00034414331B680B4498
:10230000E31ABB60BA687B689A421AD33B69DB6800
:102310005A1E396913469B0013449B000B4410332B
:1023200019683B69DB685A1E386913469B001344E1
:102330009B00034414331B68CA183B681A600023CF
:1023400000E0072318461837BD4690BC704700BF11
:10235000101D4020A8094020AC09402080B588B05D
:1023600000AFF860B9607A60294B1B7883F00103F5
:10237000DBB2002B01D0012346E0264B98470346F1
:1023800083F00103DBB2002B01D00B233CE0224B96
:102390009847B861214B1B6808337B610023FB61C0
:1023A0002BE07969FA6913469B0013449B000B44A8
:1023B0001C331A68FB689A421CD17969FA69134682
:1023C0009B0013449B000B4420331A68BB689A425D
:1023D00010D1FA6913469B0013449B0010337A69AD
:1023E00013441422194678680D4B98470D4B9847B3
:1023F000002309E0FB690133FB61FA69BB699A427A
:10240000CFDB084B9847052318462037BD4680BDD3
:102410000D1D4020011F41008D1F4100101D402057
:1024200081534400391F410090B583B000AF0E4B7B
:102430001B6808337B607B684FF0FF321A600A4BE1
:1024400018684FF40071094B1B684FF400729B1A17
:10245000FF22074CA04702467B681A6000231846FB
:102460000C37BD4690BD00BF141D4020AC09402074
:10247000052E4100B0B586B000AF7860304B1B68C8
:102480000833BB60BB68DB687B6100233B6112E003
:10249000B9683A6913469B0013449B000B44103300
:1024A0001A687B681B689A4202D93B697B6108E025
:1024B0003B6901333B61BB68DB681A463B699A4262
:1024C000E6DCBB68DB68FB601AE0FB685A1EB86894
:1024D000F9680B469B000B449B00034403F110007A
:1024E000B96813469B0013449B000B441033044609
:1024F0001D460FCD0FC42B682360FB68013BFB60BA
:10250000FA687B699A42E0DCB9687A6913469B00F5
:1025100013449B000B4403F110027B6814461D46D4
:102520000FCD0FC42B682360BB68DB685A1CBB68E7
:10253000DA60044B9847002318461837BD46B0BDF3
:10254000141D402029244100B0B586B000AF78604A
:102550003960324B1B680833BB604FF0FF337B613F
:1025600000233B611DE0B9683A6913469B001344A0
:102570009B000B441C331A687B689A420ED1B968E1
:102580003A6913469B0013449B000B4420331A689E
:102590003B689A4202D13B697B6108E03B690133A9
:1025A0003B61BB68DB681A463B699A42DBDC7B69AE
:1025B000B3F1FF3F01D105232BE07B69FB601AE0FB
:1025C000FB685A1CB868F9680B469B000B449B00DB
:1025D000034403F11000B96813469B0013449B00A9
:1025E0000B44103304461D460FCD0FC42B682360E7
:1025F000FB680133FB60BB68DB685A1EFB689A42CC
:10260000DED8BB68DB685A1EBB68DA60044B9847AB
:10261000002318461837BD46B0BD00BF141D40202A
:102620002924410080B582B000AF7860104B1B6850
:102630001A46104B1B68194610460F4B9847034625
:10264000002B01D00A230EE0094B1B6818464FF4FB
:1026500000731A467968094B98470346002B01D04E
:102660000A2300E0002318460837BD4680BD00BF9E
:10267000101D4020AC0940201904402009054020CD
:1026800090B589B000AF7860464B1B7883F00103AA
:10269000DBB2002B01D001237FE0434B9847034678
:1026A00083F00103DBB2002B01D00B2375E03F4B1D
:1026B0001B6808337B617B69DB68002B0BD13C4BCB
:1026C0001A683C4B1B68D31A1A467B681A603A4B4F
:1026D0009847002361E00023FB610023BB6127E0F2
:1026E000BB695A1C796913469B0013449B000B4439
:1026F000103319687869BA6913469B0013449B002C
:102700000344103318687C69BA6913469B0013446C
:102710009B00234414331B680344CB1A3B613A6982
:10272000FB699A4201D93B69FB61BB690133BB611B
:102730007B69DB685A1EBB699A42D1DC7B69DB6826
:10274000002B24D01A4B1A681A4B1B68D31A1C464C
:102750007B69DB685A1E796913469B0013449B0012
:102760000B44103319687B69DB685A1E786913467D
:102770009B0013449B00034414331B680B44E31A6F
:10278000FB60FA68FB699A4201D9FB68FB610A4B5E
:1027900098477B68FA691A60002318462437BD46BB
:1027A00090BD00BF0D1D4020011F4100141D4020A1
:1027B000A8094020AC094020391F410080B58AB0EB
:1027C00000AFF860B9607A600E4B1B7883F00103AC
:1027D000DBB2002B01D001230FE007F114031A46EE
:1027E000B968F868084B98470346002B04D1FA698A
:1027F0007B681A60002300E0052318462837BD4691
:1028000080BD00BF0D1D40205D23410080B58CB010
:1028100000AFF860B9607A603F4B1B7883F001032A
:10282000DBB2002B01D0012371E07B68002B01D1CA
:1028300002236CE0B968F868384B98470346002BD0
:1028400001D1062363E0364B9847034683F001032A
:10285000DBB2002B01D00B2359E0324B98470346E3
:10286000132B03DD304B9847092350E000237B6294
:102870007B68FB622D4B1B681A467B68B3FBF2F149
:1028800002FB01F29B1A002B0FD0284B1B68184645
:10289000264B1B681A467B68B3FBF2F102FB01F280
:1028A0009B1AC31AFA6A1344FB6207F12403194600
:1028B000F86A1F4B98470346002B03D01A4B9847E2
:1028C000072324E07B6A3B61FB6A7B617B68BB6119
:1028D000FB68FB61BB683B6207F110031846154BB0
:1028E0009847B862BB6A002B03D00F4B9847BB6A6E
:1028F0000DE0114B1B681846104B9847B8620A4B05
:102900009847BB6A002B01D0BB6A00E00023184641
:102910003037BD4680BD00BF0D1D4020C51F4100A2
:10292000011F41008D1F4100391F4100AC094020AB
:10293000F521410075244100141D40202526410049
:1029400080B58AB000AF78603960204B1B7883F087
:102950000103DBB2002B01D0012332E007F10C03AD
:102960001A46396878681A4B98470346002B01D0FD
:10297000052326E0FB681846164B984778623B69AA
:102980003B62786A144B1B681A463B6AB3FBF2F150
:1029900002FB01F29B1A002B09D00F4B1B681A4651
:1029A0003B6A13440C4A12685242134000E03B6AEF
:1029B00019460A4B98470346002B01D00A2300E032
:1029C000002318462837BD4680BD00BF0D1D40209E
:1029D0005D234100611F4100AC09402019044020E3
:1029E00080B58AB000AFF860B9607A603B60164B82
:1029F0001B7883F00103DBB2002B01D001231EE022
:102A000007F110031A46B968F868104B9847034657
:102A1000002B01D0052312E03B6918460C4B984768
:102A200078627A6A3B6813443A6B79681846094BB6
:102A300098470346002B01D00A2300E000231846E4
:102A40002837BD4680BD00BF0D1D40205D234100DD
:102A5000611F41000905402080B58AB000AFF860D1
:102A6000B9607A603B60124B1B7883F00103DBB2E4
:102A7000002B01D0012316E007F114031A46B968B0
:102A8000F8680C4B98470346002B01D005230AE059
:102A90007B691846084B984702467B681A60FA69BA
:102AA0003B681A60002318462837BD4680BD00BF2A
:102AB0000D1D40205D234100611F410090B58DB088
:102AC00002AFF860B9607A603B601B4B1B7883F003
:102AD0000103DBB2002B01D0012328E007F114032E
:102AE0001A46B968F868154B98470346002B01D081
:102AF00005231CE0FA693B689A4201D0022316E0E4
:102B0000B968F8680E4B98470346002B01D00A239A
:102B10000DE03B68009300237A68B968F868094CB7
:102B2000A0470346002B01D00A2300E000231846EB
:102B30002C37BD4690BD00BF0D1D40205D234100D8
:102B400041294100E129410080B584B000AF78609F
:102B50003960114B9847034683F00103DBB2002B29
:102B600001D00B2314E0396878680C4B9847F86063
:102B7000FB68002B03D00A4B9847FB6808E0094B21
:102B80001B681846084B9847F860054B9847FB6848
:102B900018461037BD4680BD011F41004925410040
:102BA000391F4100141D40202526410080B582B008
:102BB00000AF274B1B7883F00103DBB2002B01D061
:102BC000012340E0234B1B684FF40072FF2118469D
:102BD000214B98471F4B1B687B607B681F4A1A601C
:102BE0007B6801225A607B6808333B601C4B1B6882
:102BF0001A463B685A601B4B1B681A463B689A6032
:102C00003B680022DA60184B9847184B1B681A463D
:102C1000134B1B6819461046154B98470346002B6B
:102C200001D00A230FE0114B1B681846094B1B68A3
:102C30004FF4007219460F4B98470346002B01D002
:102C40000A2300E0002318460837BD4680BD00BFB8
:102C50000D1D4020141D40207D554400534658242E
:102C6000AC094020B009402029244100101D40201B
:102C7000190440200905402090B585B000AF2A4BCB
:102C80001B7883F00103DBB2002B01D0012347E066
:102C9000264B1B68B3F1FF3F01D1042340E0244BD6
:102CA0001B68FB60FB681B68224A934201D0042327
:102CB00036E0FB685B68012B01D0042330E01C4B3D
:102CC0001B680833BB60BB681B687B60BB684FF048
:102CD000FF321A60164B18684FF40071164B1B68D0
:102CE0004FF400729B1AFF22144CA04702467B68E7
:102CF0009A4201D0042313E0BB687A681A60BB686B
:102D00005B681A460C4B1B689A4206D1BB689B68ED
:102D10001A460B4B1B689A4201D0042300E00023A3
:102D200018461437BD4690BD0D1D4020A80940200F
:102D3000141D402053465824AC094020052E410064
:102D4000B009402080B485B000AF78600B46FB70BE
:102D50000023FB600023FB7215E07B6803F0010396
:102D6000002B0AD0FB785A1EFB7AD31A012202FAF2
:102D700003F31A46FB681343FB607B685B087B60C8
:102D8000FB7A0133FB72FA7AFB789A42E5D3FB684F
:102D900018461437BD465DF8047B704780B485B093
:102DA00000AF0023BB601FE0BB681B06FB6008236D
:102DB000FB710EE0FB68002B05DAFB685A000F4B35
:102DC0005340FB6002E0FB685B00FB60FB79013B6A
:102DD000FB71FB79002BEDD10949BB68FA6841F81A
:102DE0002320BB680133BB60BB68FF2BDCDD00BF69
:102DF0001437BD465DF8047B704700BFB71DC104A2
:102E0000CC2F402080B588B000AFF860B9603B603F
:102E10001346FB714FF0FF33FB610023BB6119E0E8
:102E2000BB69FA6813441B78082118461F4B984762
:102E30000346DAB2FB691B0EDBB25340FB75FB7D28
:102E40001B4A52F82320FB691B025340FB61BB69FC
:102E50000133BB61BA69BB689A42E1DB0023BB6105
:102E600016E0FB7908211846104B98470346DAB262
:102E7000FB691B0EDBB25340FB75FB7D0C4A52F81D
:102E80002320FB691B025340FB61BB690133BB611B
:102E9000BA693B689A42E4DB2021F869034B984702
:102EA0000346DB4318462037BD4680BD452D410013
:102EB000CC2F402080B586B000AFF860B9607A6052
:102EC000114B1B68002B04D1104B984702460E4B48
:102ED0001A607968B8680E4B984700237B610BE055
:102EE0000C497A6913469B0013449B000B44002253
:102EF0001A707B6901337B617B69092BF0DD00234C
:102F000018461837BD4680BD181D4020B9C1420083
:102F1000E51D4100CC33402080B400AF0C2318469F
:102F2000BD465DF8047B704780B584B000AF786023
:102F30007B68094A934201D0012308E0074B984778
:102F4000F860FB68002B01D1054B9847FB681846D9
:102F50001037BD4680BD00BFC9007F42A92F410088
:102F6000AD2B410080B500AF064B1B68FA21184617
:102F7000054B98470346002B0CBF01230023DBB20F
:102F8000184680BD181D402069C1420080B500AFC1
:102F9000034B1B681846034B984700BF80BD00BF1A
:102FA000181D402099C1420080B582B000AF164B79
:102FB0009847034683F00103DBB2002B01D00D23B9
:102FC0001EE000237B6015E010497A6813469B00E1
:102FD00013449B000B441B78002B08D00B497A68E4
:102FE00013469B0013449B000B4400221A707B681D
:102FF00001337B607B68092BE6DD054B9847002396
:1030000018460837BD4680BD652F4100CC334020AF
:103010008D2F410080B586B000AFF860B9607A604E
:10302000FB6800221A607968B8682D4B9847034600
:10303000002B01D002234FE000237B6148E02949A7
:103040007A6913469B0013449B000B441B78002BAA
:103050003BD124497A6913469B0013449B000B44DF
:1030600001221A701F497A6913469B0013449B0082
:103070000B440433BA681A601A497A6913469B00F4
:1030800013449B000B4408337A681A6015497A6927
:1030900013469B0013449B000B440C3300221A6020
:1030A00010497A6913469B0013449B000B4410336C
:1030B00000221A607A6913469B0013449B00094A58
:1030C0001A44FB681A60002306E07B6901337B61C8
:1030D0007B69092BB3DD0B2318461837BD4680BD2D
:1030E00005314100CC33402080B483B000AF78601C
:1030F0007B6800221A70002318460C37BD465DF825
:10310000047B704780B485B000AF786039600023DD
:10311000FB6026E01849FA6813469B0013449B00A5
:103120000B4404331A687B689A4217D11249FA6833
:1031300013469B0013449B000B4408331A683B68FA
:103140009A420BD10C49FA6813469B0013449B002A
:103150000B441B78002B01D0012306E0FB680133F0
:10316000FB60FB68092BD5DD002318461437BD46EC
:103170005DF8047B704700BFCC33402080B584B03D
:1031800000AFF860B9607A607A68B968F868174B80
:10319000984703460B2B23D801A252F823F000BF17
:1031A000D1314100D5314100E1314100E1314100EF
:1031B000E1314100DD314100E1314100E1314100C7
:1031C000E1314100E1314100E1314100D9314100BB
:1031D000002307E0082305E00A2303E0052301E0BC
:1031E00000BF0C2318461037BD4680BDBD274100E7
:1031F00090B585B000AFF860B9607A603B603B681D
:103200007A68B968F868174CA04703460B2B23D897
:1032100001A252F823F000BF493241004D32410073
:103220005132410059324100593241005932410076
:10323000593241005932410059324100593241005E
:103240005932410055324100002307E0082305E0D0
:10325000012303E00A2301E000BF0C2318461437C2
:10326000BD4690BD5D20410090B585B000AFF860CF
:10327000B9607A603B603B687A68B968F868174C57
:10328000A04703460B2B23D801A252F823F000BF1E
:10329000C1324100C5324100C9324100D132410042
:1032A000D1324100D1324100D1324100D13241000E
:1032B000D1324100D1324100D1324100CD32410002
:1032C000002307E0082305E0012303E00A2301E0CF
:1032D00000BF0C2318461437BD4690BD2D21410078
:1032E00090B589B000AFF860B9607A603B603F4B41
:1032F0009847034683F00103DBB2002B01D00D2376
:103300006FE0FB6800221A607A68B968F868384B89
:103310009847F861FB69002B03D0364B9847FB694F
:103320005FE03A687968B868334B984703460B2BDF
:1033300029D801A252F823F08133410069334100BA
:103340008733410087334100873341008733410091
:10335000753341007B334100873341007B334100AB
:10336000873341006F3341000823FB610EE00A23DD
:10337000FB610BE00323FB6108E00923FB6105E02F
:103380000023FB6102E00C23FB6100BFFB69002B03
:1033900008D0FB681B681846184B9847154B984790
:1033A000FB691EE00023BB6100237B6107F114036E
:1033B00007F118027968B868114CA047FB681B68D0
:1033C00002221A70FB681B68BA69DA60FB681B6826
:1033D0003A681A617968B8680A4B9847054B98476C
:1033E000002318462437BD4690BD00BF652F41001D
:1033F000153041008D2F41000D284100E93041007A
:10340000592A41004129410090B589B002AFF860C6
:10341000B9607A603B60BB6A7A68B968F868104C3A
:10342000A04778617B69002B01D07B6914E00D4BCC
:103430009847034683F00103DBB2002B01D00D2334
:103440000AE0BB6A009300233A687968B868064CC2
:10345000A047064B9847002318461C37BD4690BD31
:10346000E1324100652F4100E12941008D2F4100EB
:10347000B0B58AB000AF78603960244B98470346F6
:1034800083F00103DBB2002B01D00D233AE0396851
:1034900078681F4B98470346002B03D01D4B984775
:1034A00002232FE0396878681B4B98470346002BAE
:1034B00003D0184B9847052324E000233B6207F113
:1034C00020033A6879681846144B984778627B6AFB
:1034D000002B03D00F4B98477B6A13E03B6A07F140
:1034E0000C041D460FCD0FC42B6823603B6A0022DD
:1034F0001A703B697A6911461846094B9847054B83
:103500009847002318462837BD46B0BD652F4100B7
:10351000053141008D2F4100C51F4100153041008C
:10352000492B410080B586B000AFF860B9607A6081
:10353000FB6800221A60254B9847034683F001037D
:10354000DBB2002B01D00D233CE000237B612DE09A
:103550001F497A6913469B0013449B000B440433B4
:103560001A68BB689A421ED119497A6913469B00B2
:1035700013449B000B4408331A687B689A4212D1AB
:1035800013497A6913469B0013449B000B441B7834
:10359000002B08D07A6913469B0013449B000C4A09
:1035A0001A44FB681A607B6901337B617B69092BD4
:1035B000CEDD084B9847FB681B68002B01D1062322
:1035C00000E0002318461837BD4680BD652F410036
:1035D000CC3340208D2F410090B589B000AFF8600A
:1035E000B9607A60FB6800221A602C4B984703464A
:1035F00083F00103DBB2002B01D00D2349E0796891
:10360000B868274B98470346002B03D0254B9847B3
:1036100002233EE00023BB6107F118031A467968D4
:10362000B868214B98470346002B09D0052B03D1DE
:103630001C4B984705232CE01A4B98470C2328E095
:1036400000BF7A68B968F868184B9847F861FB6959
:10365000002B03D0134B9847FB691AE000237B61D2
:1036600000233B6107F1100307F114027968B86881
:103670000F4CA047FB681B6802221A70FB681B688E
:103680007A69DA60FB681B683A691A61054B9847EA
:10369000002318462437BD4690BD00BF652F41006A
:1036A000053141008D2F4100BD27410015304100FB
:1036B000592A410080B584B000AFF860B9607A60E3
:1036C000104B9847034683F00103DBB2002B01D077
:1036D0000D2312E0FB681B78022B03D00A4B98479E
:1036E00006230AE0FB68DA68BB681A60FB681A699F
:1036F0007B681A60044B9847002318461037BD4674
:1037000080BD00BF652F41008D2F410090B587B06F
:1037100002AFF860B9607A603B60114B984703468E
:1037200083F00103DBB2002B01D00D2314E0FB6812
:103730001B78022B03D00B4B984706230CE0FB6849
:103740005868FB6899683B6800937B68BA68064CC8
:10375000A047044B9847002318461437BD4690BD38
:10376000652F41008D2F4100E129410080B582B0D5
:1037700000AF78600D4B9847034683F00103DBB23E
:10378000002B01D00D230DE07B681B78022B03D0AA
:10379000074B9847062305E07B6800221A70044B0C
:1037A0009847002318460837BD4680BD652F410065
:1037B0008D2F410090B58BB002AF7860294B9847B0
:1037C0000346002B02D04FF47A7301E04FF4967356
:1037D000FB611420244B9847B861BB697A681A6072
:1037E000BB6903225A60BB6902229A60BB691F4A07
:1037F000DA60BB691E4A1A61FB699AB207F11003CD
:10380000019304230093BB691A491B481B4CA04732
:10381000144B98470346002B1ED01420124B984798
:1038200078617B697A681A607B6906225A607B69D5
:1038300005229A607B69124ADA607B69114A1A6133
:10384000FB699AB207F10C030193042300937B698F
:103850000D490948094CA047002318462437BD46A6
:1038600090BD00BF81C64200CDC142006DE742005D
:1038700009E8420018AB44008D384100A1BB430069
:10388000D1E7420055E8420020AB44002DE9F04367
:10389000A3B002AF78607B683B673B6F1B68FB6639
:1038A0007B4B98470346002B08D04FF4FA53FB6735
:1038B0004FF4FA53BB6732237B6706E04FF416736D
:1038C000FB676423BB6703237B6707F14C0107F1A8
:1038D00050007B6FFA6E6F4EB0473B6F5B68D9B29A
:1038E0003A6DFB6CF86E6C4EB0476C4B98470146D6
:1038F0000B46013BBB660A464FF000034FEAC30983
:1039000049EA52794FEAC2080A464FF00003DD0047
:1039100045EA5275D400CB1DDB08DB00ADEB030D8F
:1039200002AB00337B66F86F5D4B98473866B86F23
:103930005C4B9847F8655C4B98470346FB62FB6E0F
:103940003B6300237B633B6EBB630023FB63FB6F26
:103950003B64032200210120544B984703467B64BB
:103960003B6F9B68BB64786C002300220021504CA5
:10397000A047796E07F12C02BB6F0193FB6D00939A
:103980000B464C494C484D4CA047B8653B6FDB6833
:10399000B86D984707F128034FF47A7240F6B831B2
:1039A0001846474B9847786507F10C024FF4FA73B5
:1039B0004FF0FF310020434CA047BB6A1846424BF2
:1039C000984703467B65FB6E1A68FB681340002B23
:1039D000EAD052E0BB6A18463B4B984703467B65EA
:1039E0003A693B6F5B689A4240D1786C00234FF490
:1039F0007A720021354CA0470346012B0FD107F105
:103A00002C0207F110031946386F314B9847386D77
:103A100007F11001002300222C4CA0472DE0BB6AC7
:103A20001846294B984703467B65FB6C0A211846CC
:103A3000284B98470346002B08D13B6D1946F86E7A
:103A4000254B9847FB6C1846244B9847786C00230D
:103A50000A2200211D4CA0470346012BDFD1786CC0
:103A6000002300220021124CA04706E0386D07F128
:103A7000100100230022154CA047386D07F11001FA
:103A800001230022114CA0470346002BA2D18BE753
:103A900081C642000D04410049044100318E4300BB
:103AA000CDC142002DC24200E9C94300E5AF430049
:103AB00001B2430075554100115541006D8E430020
:103AC0007514410001CD43006915410029B543003B
:103AD000013C410069C14200E13A410099C1420004
:103AE00090B58FB000AF7860396038682E4B98473A
:103AF0000346FB62FB6A0C2B52DC38682B4B984761
:103B00000346BB6200237B6326E007F10801002324
:103B100000223868264CA0477B691B697B627B6A60
:103B20001B68162B07D07B6A1B68172B03D07B6A98
:103B30001B68182B06D107F10803194678681D4B3E
:103B4000984706E007F108010023002238681A4C64
:103B5000A0477B6B01337B637A6BBB6A9A42D4DBF1
:103B60003868124B98470346BB62BB6AC3F1320305
:103B70003B623B6A3B630FE007F108010023002230
:103B800038680B4CA04707F1080319467868094BC1
:103B900098473B6B01333B633B6B0B2BECDD00E049
:103BA00000BF3C37BD4690BDB1B7430071B743007D
:103BB00029B54300D504410001B2430090B585B05A
:103BC00000AF78607B68FB60FB689B68002B07D0C8
:103BD000FB689B681846084B9847FB6800229A6070
:103BE000FB689869002300220021044CA04700BF15
:103BF0001437BD4690BD00BF1D12410001B2430005
:103C0000F0B5EDB008AF07F11403186007F1100329
:103C1000196007F10C031A6007F114031B681B6895
:103C2000C7F88C3107F110031B68DB681B69C7F804
:103C3000883107F110031B681B69082B22D1D7F8C4
:103C400088311B68022B1DD107F10C031B68002271
:103C50001A6107F10C031968A548A64B984707F1AC
:103C600014031B681C6907F10C031B68D86807F173
:103C70000C031B68196907F10C031B689E4AA047D7
:103C800001F037BC07F110031B681B690C2B2DD109
:103C9000D7F888311B68032B28D107F110031B6864
:103CA000DB681B69C7F8843107F10C031B6800222D
:103CB0001A61D7F884319B68184607F10C031A681B
:103CC0008B498E4B984707F114031B681C6907F159
:103CD0000C031B68D86807F10C031B68196907F10E
:103CE0000C031B68844AA04701F003BC07F11003D2
:103CF0001B681B690C2B2DD1D7F888311B68042B4E
:103D000028D107F110031B68DB681B69C7F88031F5
:103D100007F10C031B6800221A61D7F880319B68F9
:103D2000184607F10C031A687149754B984707F15B
:103D300014031B681C6907F10C031B68D86807F1A2
:103D40000C031B68196907F10C031B686A4AA0473A
:103D500001F0CFBB07F110031B681B690C2B2FD19F
:103D6000D7F888311B68152B2AD107F110031B687F
:103D7000DB681B69C7F87C3107F10C031B68002264
:103D80001A61D7F87C31986807F10C031B6800931F
:103D9000574B002200215B4CA04707F114031B681E
:103DA0001C6907F10C031B68D86807F10C031B683A
:103DB000196907F10C031B684F4AA04701F099BB32
:103DC000D7F888311B68162B3CD107F110031B680C
:103DD0001A69D7F888315B689A4233D107F110032A
:103DE0001B68DB681B69C7F8783107F10C031B6897
:103DF00000221A61D7F878319868D7F87831D968F5
:103E0000D7F878315A69D7F878311C6907F10C0373
:103E10001B680193364B009323463B4CA04707F1A8
:103E200014031B681C6907F10C031B68D86807F1B1
:103E30000C031B68196907F10C031B682E4AA04785
:103E400001F057BBD7F888311B68172B60D107F1F9
:103E500010031B681A69D7F888315B689A4257D1FA
:103E600007F110031B68DB681B69C7F87431D7F8CA
:103E700074319A6907F168031A60D7F87431DC6805
:103E8000D7F874311B69D7F87421526907F16401BE
:103E900007F168000192009323460A461C211B4C3F
:103EA000A0470346C7F87031D7F87031002B41F0B6
:103EB000FF8207F110031B68DA6807F10C031B6827
:103EC0009A6007F110031B680022DA6007F11403FF
:103ED0001B681C6907F16803186807F16403196817
:103EE00007F10C031B68044AA04701F0E1BA00BFC8
:103EF0008F554100D1914300BD3B41000D924300DD
:103F000059924300A592430005A2430015A1430026
:103F1000D7F888311B68182B3CD107F110031B68B8
:103F20001A69D7F888315B689A4233D107F11003D8
:103F30001B68DB681B69C7F86C3107F10C031B6851
:103F400000221A61D7F86C319868D7F86C31D968BB
:103F5000D7F86C315A69D7F86C311C6907F10C033A
:103F60001B6801938F4B009323468F4CA04707F1AA
:103F700014031B681C6907F10C031B68D86807F160
:103F80000C031B68196907F10C031B68874AA047DB
:103F900001F0AFBAD7F888311B681A2B3CD107F172
:103FA00010031B681A69D7F888315B689A4233D1CD
:103FB00007F110031B68DB681B69C7F8683107F15C
:103FC0000C031B6800221A61D7F868319868D7F88B
:103FD0006831D968D7F868315A69D7F868311C69EF
:103FE00007F10C031B6801936E4B00932346704C42
:103FF000A04707F114031B681C6907F10C031B6839
:10400000D86807F10C031B68196907F10C031B68DA
:10401000664AA04701F06DBAD7F888311B68192BA2
:104020003CD107F110031B681A69D7F888315B6827
:104030009A4233D107F110031B68DB681B69C7F88C
:10404000643107F10C031B6800221A61D7F8643150
:104050009868D7F86431D968D7F864315A69D7F8C5
:1040600064311C6907F10C031B6801934D4B0093ED
:104070002346504CA04707F114031B681C6907F145
:104080000C031B68D86807F10C031B68196907F15A
:104090000C031B68454AA04701F02BBAD7F88831BA
:1040A0001B681B2B3CD107F110031B681A69D7F85A
:1040B00088315B689A4233D107F110031B68DB68D3
:1040C0001B69C7F8603107F10C031B6800221A61F5
:1040D000D7F860319868D7F86031D968D7F860317F
:1040E0005A69D7F860311C6907F10C031B6801930A
:1040F0002C4B00932346304CA04707F114031B6858
:104100001C6907F10C031B68D86807F10C031B68D6
:10411000196907F10C031B68244AA04701F0E9B9AB
:10412000D7F888311B681C2B4AD107F110031B6894
:104130001A69D7F888315B689A4241D107F11003B8
:104140001B68DB681B69C7F85C3107F10C031B684F
:1041500000221A61D7F85C319868D7F85C31D968C9
:10416000D7F85C315A69D7F85C311C6907F10C0348
:104170001B6801930B4B00932346104CA04707F19B
:1041800014031B681C6907F10C031B68D86807F14E
:104190000C031B68196907F10C031B68034AA0474D
:1041A00001F0A7B98F554100519F4300BD3B41002D
:1041B0000DA343008DA2430099A3430025A443000F
:1041C000D7F888311B68052B4FD107F110031B6806
:1041D0001A69D7F888315B689A4246D107F1100313
:1041E0001B68DB681B69C7F8583107F10C031B68B3
:1041F00000221A61D7F858319868D7F85831D96831
:10420000D7F85831D3ED047AD7F8583193ED057AC1
:10421000D7F858319A69D7F85831D3ED076AD7F8EB
:10422000583193ED086A07F10C031B680093B14BFA
:10423000F0EE461AB0EE661AF0EE470AB0EE670AE4
:10424000AD4CA04707F114031B681C6907F10C0370
:104250001B68D86807F10C031B68196907F10C0388
:104260001B68A64AA04701F044B9D7F888311B68FB
:10427000062B67D107F110031B681A69D7F888313C
:104280005B689A425ED107F110031B68DB681B690B
:10429000C7F8543107F10C031B6800221A61D7F8E4
:1042A00054319868D7F85431D968D7F85431D3EDE0
:1042B000047AD7F8543193ED057AD7F85431D3ED19
:1042C000066AD7F8543193ED076AD7F85431D3ED25
:1042D000085AD7F8543193ED095AD7F8543193ED71
:1042E0000A3AD7F85431D3ED0B3AD7F8543193ED5D
:1042F0000C4AD7F85431D3ED0D4A07F10C031B6873
:104300007C4AF0EE452AB0EE652AF0EE461AB0EE91
:10431000661AF0EE470AB0EE670A794CA04707F13B
:1043200014031B681C6907F10C031B68D86807F1AC
:104330000C031B68196907F10C031B686F4AA0473F
:1043400001F0D7B8D7F888311B68072B48D107F19F
:1043500010031B681A69D7F888315B689A423FD10D
:1043600007F110031B68DB681B69C7F8503107F1C0
:104370000C031B6800221A61D7F850319868D7F8EF
:104380005031D968D7F850311A69D7F85031D3ED88
:10439000057AD7F8503193ED067AD7F85031DC69B9
:1043A00007F10C031B680193524B00932346F0EE78
:1043B000470AB0EE670A534CA04707F114031B6885
:1043C0001C6907F10C031B68D86807F10C031B6814
:1043D000196907F10C031B68484AA04701F089B826
:1043E000D7F888311B68082B3CD107F110031B68F4
:1043F0001A69D7F888315B689A4233D107F1100304
:104400001B68DB681B69C7F84C3107F10C031B689C
:1044100000221A61D7F84C319868D7F84C31D96826
:10442000D7F84C315A69D7F84C311C6907F10C03A5
:104430001B6801932F4B00932346334CA04707F191
:1044400014031B681C6907F10C031B68D86807F18B
:104450000C031B68196907F10C031B68274AA04766
:1044600001F047B8D7F888311B68092B50D107F104
:1044700010031B681A69D7F888315B689A4247D1E4
:1044800007F110031B68DB681B69C7F8483107F1A7
:104490000C031B6800221A61D7F848319868D7F8D6
:1044A0004831D968D7F848311C69D7F848315D6977
:1044B000D7F848319B6907F10C02126802920D4A45
:1044C000019200932B462246104CA04707F114039B
:1044D0001B681C6907F10C031B68D86807F10C0303
:1044E0001B68196907F10C031B68044AA04701F017
:1044F00000B800BF8F55410005934300BD3B41000C
:10450000BD934300C99443006D954300F19543006A
:10451000D7F888311B680A2B48D107F110031B68B4
:104520001A69D7F888315B689A423FD107F11003C6
:104530001B68DB681B69C7F8443107F10C031B6873
:1045400000221A61D7F844319868D7F84431D3ED86
:10455000037AD7F8443193ED047AD7F84431596996
:10456000D7F844319A69D7F84431DC6907F10C0374
:104570001B680193804B00932346F0EE470AB0EE90
:10458000670A7E4CA04707F114031B681C6907F1FA
:104590000C031B68D86807F10C031B68196907F145
:1045A0000C031B68764AA04700F0A3BFD7F88831F8
:1045B0001B680B2B42D107F110031B681A69D7F84F
:1045C00088315B689A4239D107F110031B68DB68B8
:1045D0001B69C7F8403107F10C031B6800221A6100
:1045E000D7F840319868D7F84031D968D7F84031CA
:1045F000D3ED047AD7F840311A7DD7F840319C6961
:1046000007F10C031B6801935B4B00932346B0EE4C
:10461000670A5C4CA04707F114031B681C6907F18B
:104620000C031B68D86807F10C031B68196907F1B4
:104630000C031B68524AA04700F05BBFD7F88831D3
:104640001B680C2B56D107F110031B681A69D7F8A9
:1046500088315B689A424DD107F110031B68DB6813
:104660001B69C7F83C3107F10C031B6800221A6173
:10467000D7F83C319E68D7F83C31DB68BB60D7F88F
:104680003C311A697A60D7F83C3158693860D7F8FC
:104690003C319B69D7F83C21D269D7F83C11096AB3
:1046A000D7F83C01406AD7F83C41A46A07F10C05F1
:1046B0002D680695304D0595049403900291019262
:1046C00000933B687A68B96830462F4CA04707F1E1
:1046D00014031B681C6907F10C031B68D86807F1F9
:1046E0000C031B68196907F10C031B68244AA047D7
:1046F00000F0FFBED7F888311B68102B48D107F1B6
:1047000010031B681A69D7F888315B689A423FD159
:1047100007F110031B68DB681B69C7F8383107F124
:104720000C031B6800221A61D7F838319868D7F853
:104730003831D968D7F838311A69D7F838315C6917
:1047400007F10C031B6801930B4B009323460F4C9E
:10475000A04707F114031B681C6907F10C031B68D1
:10476000D86807F10C031B68196907F10C031B6873
:10477000034AA04700F0BDBE8F554100819643001B
:10478000BD3B410029974300C1974300099A43006C
:10479000D7F888311B68112B7BD107F110031B68F8
:1047A0001A69D7F888315B689A4272D107F1100311
:1047B0001B68DB681B69C7F83431D7F834319A6B52
:1047C00007F160031A60D7F83431DB68BB60D7F8B3
:1047D00034311B69D7F834215269D7F8341189690B
:1047E000D7F83401C069D7F83441246AD7F8345176
:1047F000D5ED097AD7F8345195ED0A7AD7F83451C6
:10480000D5ED0B6AD7F8345195ED0C6AD7F83451D1
:10481000D5ED0D5A07F15C0607F16005049403908D
:10482000029101920093B0EE652AF0EE461AB0EEC6
:10483000661AF0EE470AB0EE670ABB6832463C21C2
:1048400028469C4CA0470346C7F83031D7F8303192
:10485000002B40F02F8607F110031B68DA6807F180
:104860000C031B689A6007F110031B680022DA60D2
:1048700007F114031B681C6907F16003186807F14E
:104880005C03196807F10C031B688B4AA04700F012
:1048900011BED7F888311B68122B7BD107F11003AA
:1048A0001B681A69D7F888315B689A4272D107F1A0
:1048B00010031B68DB681B69C7F82C31D7F82C3153
:1048C0009A6B07F158031A60D7F82C31DB68BB608C
:1048D000D7F82C311B69D7F82C215269D7F82C1145
:1048E0008969D7F82C01C069D7F82C41246AD7F818
:1048F0002C51D5ED097AD7F82C5195ED0A7AD7F8D5
:104900002C51D5ED0B6AD7F82C5195ED0C6AD7F8E0
:104910002C51D5ED0D5A07F1540607F158050494B2
:104920000390029101920093B0EE652AF0EE461AD0
:10493000B0EE661AF0EE470AB0EE670ABB68324680
:104940003C2128465D4CA0470346C7F82831D7F8DC
:104950002831002B40F0B08507F110031B68DA689E
:1049600007F10C031B689A6007F110031B68002213
:10497000DA6007F114031B681C6907F15803186813
:1049800007F15403196807F10C031B684A4AA04752
:1049900000F092BDD7F888311B68132B40F092804D
:1049A00007F110031B681A69D7F888315B689A42CF
:1049B00040F0888007F110031B68DB681B69C7F8AB
:1049C0002431D7F824311A6C07F150031A60D7F854
:1049D0002431DB68BB60D7F824311B69D7F8242168
:1049E0005269D7F824118969D7F82401C069D7F82A
:1049F0002441246AD7F82451D5ED097AD7F82451F7
:104A000095ED0A7AD7F82451D5ED0B6AD7F82451E1
:104A100095ED0C6AD7F82451D5ED0D5AD7F82451ED
:104A200095ED0E5AD7F82451D5ED0F4A07F14C06F3
:104A300007F1500504940390029101920093B0EEA7
:104A4000643AF0EE452AB0EE652AF0EE461AB0EE72
:104A5000661AF0EE470AB0EE670ABB683246442198
:104A60002846174CA0470346C7F82031D7F8203115
:104A7000002B40F0238507F110031B68DA6807F16B
:104A80000C031B689A6007F110031B680022DA60B0
:104A900007F114031B681C6907F15003186807F13C
:104AA0004C03196807F10C031B68034AA04700F088
:104AB00005BD00BF719D4300BD3B4100619E4300A9
:104AC000E19D4300D7F888311B68142B40F08880A3
:104AD00007F110031B681A69D7F888315B689A429E
:104AE0007ED107F110031B68DB681B69C7F81C3116
:104AF000D7F81C311A6C07F148031A60D7F81C313B
:104B0000DB68BB60D7F81C311B69D7F81C215269E0
:104B1000D7F81C118969D7F81C01C069D7F81C4166
:104B2000246AD7F81C51D5ED097AD7F81C5195EDB8
:104B30000A7AD7F81C51D5ED0B6AD7F81C5195EDC0
:104B40000C6AD7F81C51D5ED0D5AD7F81C5195EDCC
:104B50000E5AD7F81C51D5ED0F4A07F1440607F15C
:104B6000480504940390029101920093B0EE643AD8
:104B7000F0EE452AB0EE652AF0EE461AB0EE661A5F
:104B8000F0EE470AB0EE670ABB6832464421284679
:104B9000A84CA0470346C7F81831D7F81831002BA6
:104BA00040F08E8407F110031B68DA6807F10C03EC
:104BB0001B689A6007F110031B680022DA6007F196
:104BC00014031B681C6907F14803186807F14403C4
:104BD000196807F10C031B68974AA04700F070BCE6
:104BE000D7F888311B680D2B40F0C28007F1100305
:104BF0001B681A69D7F888315B689A4240F0B88020
:104C000007F110031B68DB681B69C7F81431002328
:104C100087F8133197F81331002B44D007F10C03B8
:104C20001B6800221A61D7F814319868D7F814313C
:104C3000D968D7F81431D3ED047AD7F8143193ED4D
:104C4000057AD7F81431D3ED066AD7F8143193ED0D
:104C5000076AD7F814311A6AD7F814315C6A07F179
:104C60000C031B680193754B00932346F0EE461A24
:104C7000B0EE661AF0EE470AB0EE670A704CA04735
:104C800007F114031B681C6907F10C031B68D86843
:104C900007F10C031B68196907F10C031B68664ACE
:104CA000A04700F00FBCD7F814319B68C7F80C314F
:104CB000D7F81431DB68C7F80831D7F814311B690D
:104CC000C7F80431D7F814315B69C7F80031D7F859
:104CD00014319B69C7F8FC30D7F81431DB69C7F889
:104CE000F83007F1400300221A6007F110031B6837
:104CF000DB681B6903F1280207F13C031A6007F126
:104D0000400207F13C00D7F808310093D7ED3E1A76
:104D100097ED3F1AD7ED400A97ED410AD7F80C31CD
:104D20002821484CA0470346C7F8F430D7F8F430A0
:104D3000002B40F0C78307F110031B68DA6807F106
:104D40000C031B689A6007F110031B680022DA60ED
:104D500007F114031B681C6907F13C03186807F18D
:104D60004003196807F10C031B68334AA047A9E305
:104D7000D7F888311B680E2B40F0CD8007F1100367
:104D80001B681A69D7F888315B689A4240F0C38083
:104D900007F110031B68DB681B69C7F8F0300023BC
:104DA00087F8EF3097F8EF30002B4FD007F10C0366
:104DB0001B6800221A61D7F8F0309868D7F8F030F5
:104DC000D968D7F8F030D3ED047AD7F8F03093ED06
:104DD000057AD7F8F030D3ED066AD7F8F03093EDC6
:104DE000076AD7F8F0301A6AD7F8F0305C6A07F132
:104DF0000C031B680193114B00932346F0EE461AF7
:104E0000B0EE661AF0EE470AB0EE670A0E4CA04705
:104E100007F114031B681C6907F10C031B68D868B1
:104E200007F10C031B68196907F10C031B68024AA0
:104E3000A04749E3D19E4300BD3B41008F5541004F
:104E400081984300D5A4430045994300D7F8F0303A
:104E50009B68C7F8E830D7F8F030DB68C7F8E43073
:104E6000D7F8F0301B69C7F8E030D7F8F0305B694D
:104E7000C7F8DC30D7F8F0309B69C7F8D830D7F8DE
:104E8000F030DB69C7F8D43007F1380300221A602C
:104E900007F110031B68DB681B6903F1280207F1A7
:104EA00034031A6007F1380207F13400D7F8E43010
:104EB0000093D7ED351A97ED361AD7ED370A97EDEF
:104EC000380AD7F8E8302821A34CA0470346C7F892
:104ED000D030D7F8D030002B40F0F68207F1100325
:104EE0001B68DA6807F10C031B689A6007F110036E
:104EF0001B680022DA6007F114031B681C6907F1C4
:104F00003403186807F13803196807F10C031B68AC
:104F1000924AA047D8E2D7F888311B680F2B40F09F
:104F2000BB8007F110031B681A69D7F888315B68EA
:104F30009A4240F0B18007F110031B68DB681B69DF
:104F4000C7F8CC30002387F8CB3097F8CB30002B54
:104F500040D007F10C031B6800221A61D7F8CC304F
:104F60009868D7F8CC30D968D7F8CC30D3ED047A2C
:104F7000D7F8CC3093ED057AD7F8CC30D3ED066A6C
:104F8000D7F8CC3093ED076AD7F8CC301A6AD7F847
:104F9000CC305C6A07F10C031B680193704B0093E3
:104FA0002346F0EE461AB0EE661AF0EE470AB0EE6F
:104FB000670A6C4CA04707F10C031B68D86807F11F
:104FC0000C031B68196907F10C031B68634A664CE4
:104FD000A0477BE2D7F8CC309B68C7F8C430D7F83D
:104FE000CC30DB68C7F8C030D7F8CC301B69C7F8C5
:104FF000BC30D7F8CC305B69C7F8B830D7F8CC30C4
:105000009B69C7F8B430D7F8CC30DB69C7F8B0304B
:1050100007F1300300221A6007F110031B68DB68F8
:105020001B6903F1280207F12C031A6007F1300213
:1050300007F12C00D7F8C0300093D7ED2C1A97ED6C
:105040002D1AD7ED2E0A97ED2F0AD7F8C430282154
:10505000464CA0470346C7F8AC30D7F8AC30002B1D
:1050600040F0348207F110031B68DA6807F10C0383
:105070001B689A6007F110031B680022DA6007F1D1
:105080002C03186807F13003196807F10C031B683B
:10509000324A354CA04719E2D7F888311B68202BDB
:1050A00040F0D18007F110031B681A69D7F88831E6
:1050B0005B689A4240F0C78007F110031B68DB6809
:1050C0001B69C7F8A830002387F8A73097F8A730E6
:1050D000002B4DD007F10C031B6800221A61D7F892
:1050E000A8309868D7F8A830D968D7F8A830D3ED99
:1050F000047AD7F8A83093ED057AD7F8A830D3ED25
:10510000066AD7F8A83093ED076AD7F8A8301A6A6C
:10511000D7F8A8305C6A07F10C031B680193104BA9
:1051200000932346F0EE461AB0EE661AF0EE470AF8
:10513000B0EE670A0B4CA04707F10C031B68D86858
:1051400007F10C031B68196907F10C031B68034A7C
:10515000054CA047CAE100BFFDA54300BD3B41008F
:105160008F5541004599430009E8420025A74300B7
:10517000D7F8A8309B68C7F8A030D7F8A830DB680C
:10518000C7F89C30D7F8A8301B69C7F89830D7F813
:10519000A8305B69C7F8943007F19003D7F8A820CE
:1051A00092691A6007F18C03D7F8A820D2691A60B7
:1051B00007F1280300221A6007F110031B68DB685F
:1051C0001B6903F1280207F124031A6007F18C021E
:1051D00007F1900307F1280407F12400D7F89C1089
:1051E0000091D2ED001A93ED001AD7ED250A97ED44
:1051F000260AD7F8A03022462821B54CA0470246FF
:1052000007F188031A6007F188031B68002B40F040
:105210006D8107F110031B68DA6807F10C031B6846
:105220009A6007F110031B680022DA6007F124037B
:10523000186807F12803196807F10C031B68A54AD1
:10524000A54CA04752E1D7F888311B681D2B40F0D0
:10525000A08007F110031B681A69D7F888315B68D2
:105260009A4240F0968007F110031B68DA6807F154
:10527000840312691A6007F10C031B6800221A618B
:1052800007F1830300221A7007F183031B78002BB8
:1052900027D007F184031B68996807F184031B6812
:1052A0001A6907F184031B68D86807F10C031B68AF
:1052B00001938A4B009303460020894CA04707F1D5
:1052C00014031B681C6907F10C031B68D86807F1FD
:1052D0000C031B68196907F10C031B687D4AA04782
:1052E00006E107F110031B68DB681B6903F12C0260
:1052F00007F120031A6007F17C0300221A6007F10E
:10530000780307F18402126892681A6007F1740347
:1053100007F184021268D2681A6007F11C030022A8
:105320001A6007F1700407F1780307F17C0207F1B6
:10533000200007F11C01019107F174010968009137
:105340001B6812682C21674DA847206007F1700385
:105350001B68002B40F0CC8007F110031B68DA6853
:1053600007F10C031B689A6007F110031B68002209
:10537000DA6007F114031B681C6907F12003186841
:1053800007F11C03196807F10C031B68514AA04779
:10539000AEE0D7F888311B681F2B40F0AA8007F1D8
:1053A00010031B681A69D7F888315B689A4240F08D
:1053B000A08007F110031B68DA6807F16C0312691B
:1053C0001A6007F10C031B6800221A6107F16C03D5
:1053D0001B68986807F16C031B68DC6807F16C03B5
:1053E0001B681D6907F16C031B68D3ED057A07F193
:1053F0006C031B6893ED067A07F16C031B68D3ED11
:10540000076A07F16C031B6893ED086A07F16C03E8
:105410001B68D3ED095A07F16C031B6893ED0A5A18
:1054200007F16C031B6893ED0B3A07F16C031B68E3
:10543000D3ED0C3A07F16C031B6893ED0D4A07F1AD
:105440006C031B68D3ED0E4A07F16C031B68DE6B1F
:1054500007F16C031B681B6C07F16C021268526C3D
:1054600007F10C01096803911C4902910192009314
:105470003346F0EE452AB0EE652AF0EE461AB0EE5D
:10548000661AF0EE470AB0EE670A2A462146164C25
:10549000A04707F10C031B68D86807F10C031B68D1
:1054A000196907F10C031B680A4A0B4CA04720E05E
:1054B00000BF1EE000BF1CE000BF1AE000BF18E004
:1054C00000BF16E000BF14E000BF12E000BF10E014
:1054D00075A84300BD3B410009E842008F554100DB
:1054E000519F43005DA94300D99F430000BF00E0E6
:1054F00000BF07F110031968D7F88C01034B9847D8
:105500000023184607F5CA77BD46F0BDD504410013
:1055100090B589B002AFF860B9607A60FB687B61D2
:105520007B69596807F110037A6818460E4B984753
:105530000346002B13D13B691B697A68B96818468A
:105540000A4B98477B6959687B69DB69DAB238692D
:105550007B68009303460020054CA04700E000BF95
:105560001C37BD4690BD00BFA904410081534400D3
:105570000505410080B485B000AF786039607B6874
:10558000FB6000BF1437BD465DF8047B704780B4F4
:1055900085B000AF03463960FB713B68FB60FB6878
:1055A0001A69FB685B699A420AD2FB68DA68FB6891
:1055B0001B69581CF96808611344FA791A7000E0F5
:1055C00000BF1437BD465DF8047B704780B582B0DC
:1055D00000AF7860396039687868034B98470346B4
:1055E00018460837BD4680BD8DB1430080B582B0F6
:1055F00000AF78607868034B984700BF0837BD4616
:1056000080BD00BF21B1430080B586B000AF786097
:105610000B46FB707B687B610F4B1B683B613B69F2
:10562000002B03D0002100200C4B98477B695B685E
:10563000FA78114618460A4B98470346FB603B69C7
:10564000002B03D001210020044B9847FB6818462B
:105650001837BD4680BD00BF201D4020E1584100E5
:10566000F575430080B586B000AFF860B9607A6028
:10567000FB687B617B695B687A68B9681846034B95
:105680009847034618461837BD4680BD2976430023
:1056900080B586B000AFF860B9607A60FB687B6166
:1056A0007B695B687A68B9681846034B984703467C
:1056B00018461837BD4680BD6D76430090B589B059
:1056C00002AFF860B9607A603B60FB687B617B6920
:1056D0005868BB6A00933B687A68B968034CA04776
:1056E000034618461C37BD4690BD00BFB176430047
:1056F00080B582B000AF78607868034B984700BFF0
:105700000837BD4680BD00BFE5C5420090B587B0F3
:1057100002AF78600023FB600C4B186807F10C03A4
:105720000093002301220221094CA047FB68002BB3
:1057300007D0084B4FF080521A60BFF34F8FBFF372
:105740006F8F00BF1437BD4690BD00BF1C1D4020A9
:1057500009CF430004ED00E090B589B002AF786056
:10576000396000237B614FF47A723B68B2FBF3F33C
:105770003B617B68FB603B6907EE903AB8EE677A65
:10578000DFED136AC6EE877AFB68C3ED017A3B68EA
:10579000002B09D1FB689868642300930023002242
:1057A00003210C4CA0470DE0FB689868642300932C
:1057B00000233A690421074CA0470346002B01D17E
:1057C0000D237B617B6918461C37BD4690BD00BF29
:1057D00000007A44E1D3430090B587B002AF78600F
:1057E0000023FB600C4B186807F10C0300930023A7
:1057F00001220121094CA047FB68002B07D0084B70
:105800004FF080521A60BFF34F8FBFF36F8F00BF0E
:105810001437BD4690BD00BF1C1D402009CF43007A
:1058200004ED00E090B587B002AF78600023FB6024
:105830000C4B186807F10C0300930023012204218C
:10584000094CA047FB68002B07D0084B4FF0805253
:105850001A60BFF34F8FBFF36F8F00BF1437BD4681
:1058600090BD00BF1C1D402009CF430004ED00E0A7
:1058700090B585B002AF00237B600C4B18683B1DD0
:105880000093002301220121094CA0477B68002BD3
:1058900007D0084B4FF080521A60BFF34F8FBFF311
:1058A0006F8F00BF0C37BD4690BD00BF1C1D402050
:1058B00009CF430004ED00E080B582B000AF78600E
:1058C00001212A20054B984700212A20034B9847A5
:1058D000002318460837BD4680BD00BFDDDC42000E
:1058E00080B582B000AF786039603B68012B05D18C
:1058F00001220C4929200C4B984702E029200B4B30
:1059000098470B4A3B68136001212A20094B9847AE
:10591000002201212A20084B984700BF0837BD46C6
:1059200080BD00BF7158410011DE4200E9DF420036
:10593000201D402085DD420075DC420090B5A1B0FD
:1059400004AF786039600820634B9847F8660822F6
:105950000021F86E614B9847614B98470346184603
:105960005D4B9847B866FB6E0433B96E18465D4BC5
:105970009847786604205C4B98470346BB645B4BB2
:105980003B645B4B7B6402233B663A6E594B00934E
:10599000134601224FF47A715748584CA0470346EA
:1059A000FB63574B7B630323FB65FA6D554B0093F9
:1059B000134601224FF47A715348504CA0470346D6
:1059C0003B634F4BBB62514BBB60514B3B61514BF7
:1059D000FB60514B7B61514BBB61514BFB61514BA8
:1059E0003B62514B7B62514B9847034618463A4BFA
:1059F0009847B86507F1400107F10802FB6E029372
:105A000007F12803019307F1340300930B46B96DA6
:105A10007868474CA04708202F4B984778657B6DE6
:105A20003A681A607B681A687B6D5A607B6D5B68A8
:105A30004FF4C152C3F8BC207B6D5C687B6D5B6822
:105A4000D3F8BC301846244B98470346C4F8B83006
:105A50007B6D5B68D3F8B83003F01F03002B1CD0BC
:105A60007B6D5B68D3F8B83003F01F03C3F12003EC
:105A70003B657B6D5B687A6D5268D2F8B8103A6D01
:105A80000A44C3F8B8207B6D5B687A6D5268D2F81F
:105A9000BC103A6D8A1AC3F8BC207B6D5B687A6DC6
:105AA0005268D2F8BC2022F01F02C3F8BC20214B60
:105AB0000193062300937B6D4FF496721E491F4895
:105AC0001F4CA0471B4B1A68FB6E1A600023184638
:105AD0007437BD4690BD00BFCDC142007D55440026
